{
  "_format": "hh-sol-artifact-1",
  "contractName": "NaissanceChain",
  "sourceName": "contracts/NaissanceChain.sol",
  "abi": [
    {
      "inputs": [],
      "stateMutability": "nonpayable",
      "type": "constructor"
    },
    {
      "anonymous": false,
      "inputs": [
        {
          "indexed": false,
          "internalType": "string",
          "name": "idActe",
          "type": "string"
        },
        {
          "indexed": false,
          "internalType": "string",
          "name": "prefecture",
          "type": "string"
        },
        {
          "indexed": false,
          "internalType": "uint256",
          "name": "date",
          "type": "uint256"
        }
      ],
      "name": "NaissanceEnregistree",
      "type": "event"
    },
    {
      "inputs": [
        {
          "internalType": "address",
          "name": "",
          "type": "address"
        }
      ],
      "name": "agentsAutorises",
      "outputs": [
        {
          "internalType": "bool",
          "name": "",
          "type": "bool"
        }
      ],
      "stateMutability": "view",
      "type": "function"
    },
    {
      "inputs": [
        {
          "internalType": "address",
          "name": "agent",
          "type": "address"
        }
      ],
      "name": "ajouterAgent",
      "outputs": [],
      "stateMutability": "nonpayable",
      "type": "function"
    },
    {
      "inputs": [
        {
          "internalType": "string",
          "name": "_idActe",
          "type": "string"
        },
        {
          "internalType": "string",
          "name": "_hashDonnees",
          "type": "string"
        },
        {
          "internalType": "string",
          "name": "_encryptedData",
          "type": "string"
        },
        {
          "internalType": "string",
          "name": "_prefecture",
          "type": "string"
        },
        {
          "internalType": "string",
          "name": "_agentId",
          "type": "string"
        }
      ],
      "name": "enregistrerNaissance",
      "outputs": [],
      "stateMutability": "nonpayable",
      "type": "function"
    },
    {
      "inputs": [],
      "name": "proprietaire",
      "outputs": [
        {
          "internalType": "address",
          "name": "",
          "type": "address"
        }
      ],
      "stateMutability": "view",
      "type": "function"
    },
    {
      "inputs": [],
      "name": "totalActes",
      "outputs": [
        {
          "internalType": "uint256",
          "name": "",
          "type": "uint256"
        }
      ],
      "stateMutability": "view",
      "type": "function"
    },
    {
      "inputs": [
        {
          "internalType": "uint256",
          "name": "",
          "type": "uint256"
        }
      ],
      "name": "tousLesActes",
      "outputs": [
        {
          "internalType": "string",
          "name": "",
          "type": "string"
        }
      ],
      "stateMutability": "view",
      "type": "function"
    },
    {
      "inputs": [
        {
          "internalType": "string",
          "name": "_idActe",
          "type": "string"
        }
      ],
      "name": "verifierNaissance",
      "outputs": [
        {
          "internalType": "bool",
          "name": "valide",
          "type": "bool"
        },
        {
          "internalType": "string",
          "name": "hashDonnees",
          "type": "string"
        },
        {
          "internalType": "string",
          "name": "encryptedData",
          "type": "string"
        },
        {
          "internalType": "string",
          "name": "prefecture",
          "type": "string"
        },
        {
          "internalType": "uint256",
          "name": "dateEnregistrement",
          "type": "uint256"
        }
      ],
      "stateMutability": "view",
      "type": "function"
    }
  ],
  "bytecode": "0x608060405234801561001057600080fd5b5033600360006101000a81548173ffffffffffffffffffffffffffffffffffffffff021916908373ffffffffffffffffffffffffffffffffffffffff1602179055506001600260003373ffffffffffffffffffffffffffffffffffffffff1673ffffffffffffffffffffffffffffffffffffffff16815260200190815260200160002060006101000a81548160ff021916908315150217905550611332806100b96000396000f3fe608060405234801561001057600080fd5b506004361061007d5760003560e01c806379583ee51161005b57806379583ee5146100fe57806393c4e47d1461011c578063b0520dc01461013a578063e571acb7146101565761007d565b80632ca97a02146100825780634177311f146100b257806378e8ea5e146100e2575b600080fd5b61009c600480360381019061009791906109f5565b61018a565b6040516100a99190610a3d565b60405180910390f35b6100cc60048036038101906100c79190610a8e565b6101aa565b6040516100d99190610b4b565b60405180910390f35b6100fc60048036038101906100f79190610ca2565b610256565b005b6101066104b7565b6040516101139190610db8565b60405180910390f35b6101246104dd565b6040516101319190610de2565b60405180910390f35b610154600480360381019061014f91906109f5565b6104ea565b005b610170600480360381019061016b9190610dfd565b6105d5565b604051610181959493929190610e46565b60405180910390f35b60026020528060005260406000206000915054906101000a900460ff1681565b600181815481106101ba57600080fd5b9060005260206000200160009150905080546101d590610edd565b80601f016020809104026020016040519081016040528092919081815260200182805461020190610edd565b801561024e5780601f106102235761010080835404028352916020019161024e565b820191906000526020600020905b81548152906001019060200180831161023157829003601f168201915b505050505081565b600260003373ffffffffffffffffffffffffffffffffffffffff1673ffffffffffffffffffffffffffffffffffffffff16815260200190815260200160002060009054906101000a900460ff166102e2576040517f08c379a00000000000000000000000000000000000000000000000000000000081526004016102d990610f5a565b60405180910390fd5b6000856040516102f29190610fb6565b908152602001604051809103902060060160009054906101000a900460ff1615610351576040517f08c379a000000000000000000000000000000000000000000000000000000000815260040161034890611019565b60405180910390fd5b6040518060e00160405280868152602001858152602001848152602001838152602001828152602001428152602001600115158152506000866040516103979190610fb6565b908152602001604051809103902060008201518160000190816103ba91906111e5565b5060208201518160010190816103d091906111e5565b5060408201518160020190816103e691906111e5565b5060608201518160030190816103fc91906111e5565b50608082015181600401908161041291906111e5565b5060a0820151816005015560c08201518160060160006101000a81548160ff02191690831515021790555090505060018590806001815401808255809150506001900390600052602060002001600090919091909150908161047491906111e5565b507f65e54a6e5bcfae4a23c5c1d8bbc028a9e768a47710b21bed3bdae99923950e988583426040516104a8939291906112b7565b60405180910390a15050505050565b600360009054906101000a900473ffffffffffffffffffffffffffffffffffffffff1681565b6000600180549050905090565b600360009054906101000a900473ffffffffffffffffffffffffffffffffffffffff1673ffffffffffffffffffffffffffffffffffffffff163373ffffffffffffffffffffffffffffffffffffffff161461057a576040517f08c379a000000000000000000000000000000000000000000000000000000000815260040161057190610f5a565b60405180910390fd5b6001600260008373ffffffffffffffffffffffffffffffffffffffff1673ffffffffffffffffffffffffffffffffffffffff16815260200190815260200160002060006101000a81548160ff02191690831515021790555050565b600060608060606000806000876040516105ef9190610fb6565b90815260200160405180910390206040518060e001604052908160008201805461061890610edd565b80601f016020809104026020016040519081016040528092919081815260200182805461064490610edd565b80156106915780601f1061066657610100808354040283529160200191610691565b820191906000526020600020905b81548152906001019060200180831161067457829003601f168201915b505050505081526020016001820180546106aa90610edd565b80601f01602080910402602001604051908101604052809291908181526020018280546106d690610edd565b80156107235780601f106106f857610100808354040283529160200191610723565b820191906000526020600020905b81548152906001019060200180831161070657829003601f168201915b5050505050815260200160028201805461073c90610edd565b80601f016020809104026020016040519081016040528092919081815260200182805461076890610edd565b80156107b55780601f1061078a576101008083540402835291602001916107b5565b820191906000526020600020905b81548152906001019060200180831161079857829003601f168201915b505050505081526020016003820180546107ce90610edd565b80601f01602080910402602001604051908101604052809291908181526020018280546107fa90610edd565b80156108475780601f1061081c57610100808354040283529160200191610847565b820191906000526020600020905b81548152906001019060200180831161082a57829003601f168201915b5050505050815260200160048201805461086090610edd565b80601f016020809104026020016040519081016040528092919081815260200182805461088c90610edd565b80156108d95780601f106108ae576101008083540402835291602001916108d9565b820191906000526020600020905b8154815290600101906020018083116108bc57829003601f168201915b50505050508152602001600582015481526020016006820160009054906101000a900460ff16151515158152505090508060c0015161095857600080604051806020016040528060008152509060405180602001604052806000815250906040518060200160405280600081525090955095509550955095505061097a565b60018160200151826040015183606001518460a0015195509550955095509550505b91939590929450565b6000604051905090565b600080fd5b600080fd5b600073ffffffffffffffffffffffffffffffffffffffff82169050919050565b60006109c282610997565b9050919050565b6109d2816109b7565b81146109dd57600080fd5b50565b6000813590506109ef816109c9565b92915050565b600060208284031215610a0b57610a0a61098d565b5b6000610a19848285016109e0565b91505092915050565b60008115159050919050565b610a3781610a22565b82525050565b6000602082019050610a526000830184610a2e565b92915050565b6000819050919050565b610a6b81610a58565b8114610a7657600080fd5b50565b600081359050610a8881610a62565b92915050565b600060208284031215610aa457610aa361098d565b5b6000610ab284828501610a79565b91505092915050565b600081519050919050565b600082825260208201905092915050565b60005b83811015610af5578082015181840152602081019050610ada565b60008484015250505050565b6000601f19601f8301169050919050565b6000610b1d82610abb565b610b278185610ac6565b9350610b37818560208601610ad7565b610b4081610b01565b840191505092915050565b60006020820190508181036000830152610b658184610b12565b905092915050565b600080fd5b600080fd5b7f4e487b7100000000000000000000000000000000000000000000000000000000600052604160045260246000fd5b610baf82610b01565b810181811067ffffffffffffffff82111715610bce57610bcd610b77565b5b80604052505050565b6000610be1610983565b9050610bed8282610ba6565b919050565b600067ffffffffffffffff821115610c0d57610c0c610b77565b5b610c1682610b01565b9050602081019050919050565b82818337600083830152505050565b6000610c45610c4084610bf2565b610bd7565b905082815260208101848484011115610c6157610c60610b72565b5b610c6c848285610c23565b509392505050565b600082601f830112610c8957610c88610b6d565b5b8135610c99848260208601610c32565b91505092915050565b600080600080600060a08688031215610cbe57610cbd61098d565b5b600086013567ffffffffffffffff811115610cdc57610cdb610992565b5b610ce888828901610c74565b955050602086013567ffffffffffffffff811115610d0957610d08610992565b5b610d1588828901610c74565b945050604086013567ffffffffffffffff811115610d3657610d35610992565b5b610d4288828901610c74565b935050606086013567ffffffffffffffff811115610d6357610d62610992565b5b610d6f88828901610c74565b925050608086013567ffffffffffffffff811115610d9057610d8f610992565b5b610d9c88828901610c74565b9150509295509295909350565b610db2816109b7565b82525050565b6000602082019050610dcd6000830184610da9565b92915050565b610ddc81610a58565b82525050565b6000602082019050610df76000830184610dd3565b92915050565b600060208284031215610e1357610e1261098d565b5b600082013567ffffffffffffffff811115610e3157610e30610992565b5b610e3d84828501610c74565b91505092915050565b600060a082019050610e5b6000830188610a2e565b8181036020830152610e6d8187610b12565b90508181036040830152610e818186610b12565b90508181036060830152610e958185610b12565b9050610ea46080830184610dd3565b9695505050505050565b7f4e487b7100000000000000000000000000000000000000000000000000000000600052602260045260246000fd5b60006002820490506001821680610ef557607f821691505b602082108103610f0857610f07610eae565b5b50919050565b7f4e6f6e206175746f726973650000000000000000000000000000000000000000600082015250565b6000610f44600c83610ac6565b9150610f4f82610f0e565b602082019050919050565b60006020820190508181036000830152610f7381610f37565b9050919050565b600081905092915050565b6000610f9082610abb565b610f9a8185610f7a565b9350610faa818560208601610ad7565b80840191505092915050565b6000610fc28284610f85565b915081905092915050565b7f416374652064656a6120656e7265676973747265000000000000000000000000600082015250565b6000611003601483610ac6565b915061100e82610fcd565b602082019050919050565b6000602082019050818103600083015261103281610ff6565b9050919050565b60008190508160005260206000209050919050565b60006020601f8301049050919050565b600082821b905092915050565b60006008830261109b7fffffffffffffffffffffffffffffffffffffffffffffffffffffffffffffffff8261105e565b6110a5868361105e565b95508019841693508086168417925050509392505050565b6000819050919050565b60006110e26110dd6110d884610a58565b6110bd565b610a58565b9050919050565b6000819050919050565b6110fc836110c7565b611110611108826110e9565b84845461106b565b825550505050565b600090565b611125611118565b6111308184846110f3565b505050565b5b818110156111545761114960008261111d565b600181019050611136565b5050565b601f8211156111995761116a81611039565b6111738461104e565b81016020851015611182578190505b61119661118e8561104e565b830182611135565b50505b505050565b600082821c905092915050565b60006111bc6000198460080261119e565b1980831691505092915050565b60006111d583836111ab565b9150826002028217905092915050565b6111ee82610abb565b67ffffffffffffffff81111561120757611206610b77565b5b6112118254610edd565b61121c828285611158565b600060209050601f83116001811461124f576000841561123d578287015190505b61124785826111c9565b8655506112af565b601f19841661125d86611039565b60005b8281101561128557848901518255600182019150602085019450602081019050611260565b868310156112a2578489015161129e601f8916826111ab565b8355505b6001600288020188555050505b505050505050565b600060608201905081810360008301526112d18186610b12565b905081810360208301526112e58185610b12565b90506112f46040830184610dd3565b94935050505056fea2646970667358221220d8ff17a5367b35855a3eea7041a3522a3be3e81b7c92433e5885d693b5735a0d64736f6c63430008140033",
  "linkReferences": {},
  "deployedLinkReferences": {}
}